:0818000098180400000000002C
:08184800BC0F040000000000C9
:081860000C1004000000000060
:0818A0009C110400000000008F
:081BF8003220EF0083E0200021
:101C0000008041001040BA000160EF0000000600B3
:101C1000737400006174000065250000640A000010
:101C200000000000851F7800C500200003000900A7
:101C3000B51F78008004EB00080028004300AF00C7
:101C400083016C000000E00003003A00FAFF270067
:101C50000A8560004220AE00010578008A8569008F
:101C60000103780083037800030678004220A9006E
:101C70004200A9000683D2000680FD00F60FB200E4
:101C80000600E000A10032004220A9004200A900A5
:101C90008783D2000780FD00F70FB2000700E00045
:101CA0009F0032004220A9004200A9000638E1004E
:101CB0009C003200A30033000900A1000910A0001D
:101CC0000684530007037800F10FB2000170A000F2
:101CD000F30FB2000370A000870220000838E10073
:101CE000110033004220A9004200A9008180D300E6
:101CF0000080D3000804E900FAFF3A000D00370025
:101D0000870220000838E100090033004220A900C2
:101D10004200A9008381D3000281D3000804E900B6
:101D2000FAFF3A000F0037000200780083007800C5
:101D3000430037000BF0A600110037000940A70050
:101D40008C0578000000EA000200320081C0EA0041
:101D5000010037008100EA000940A7002B0037008E
:101D6000070037000BF0A600050037000201EA006B
:101D70000200320083C1EA00010037008301EA005B
:101D8000F50FB2004220A9004200A9000200400065
:101D900083C048004200AF000930A0000900A7003E
:101DA000090037000910A700010037000B003700B9
:101DB0000BF0A700150037000930A70029003700F5
:101DC0000960A0001E0037000BF0A7000F003700CD
:101DD0000930A70023003700190037000920A100AF
:101DE0000BF0A700040037008A0578000930A7002F
:101DF0001C003700360037000940A00001C8B200BF
:101E00000170A700CDFF37008A057800F10FB200FE
:101E1000810370000A0032000170A700080037003B
:101E20004220A9004200A9000080D2008180D20097
:101E30000603E9004220AF0031003700F6FF37000B
:101E40000900A7008A0578000910A7008C05780012
:101E50000950A6001A0037000AF0A7000080A00071
:101E60001B0037004200A80081C0D3000080D300CF
:101E70004200AF000950A0000603E8002000320035
:101E80000950A600080037000000E80006003A00EC
:101E90008140E80004003A0081C0D3000080D300F4
:101EA0000603E800160032000900A7008A05780042
:101EB0000910A7008C0578004220AF001000370001
:101EC0000960A7008A0578000970A7008C057800D2
:101ED00001017000230032000170A1000680FD00A6
:101EE0004220A9004200A9000683D30081006B00B4
:101EF00001F0A0000BF0A60001F0A10019003700CE
:101F00000000200001002000160037000AF0A700A2
:101F100083016C0002007800830078001100370014
:101F200010003700F30FB2000370A000F10FB200F1
:101F30000170A0000BF0A7000370A1000920A00011
:101F400088FF370007045300F10FB2000170A000B2
:101F5000F30FB2000370A0000910A1000900A00057
:101F600067FF37002501200003000900CF12780029
:101F7000CF027800000006004200F8003600F800AA
:101F80003200F800801F7800200020000C000900BB
:101F9000B01F7800944180006120E1000A003A00FF
:101FA0004300A9001088BF00914080004203280030
:101FB00073BB2300120E02000000000010A8B7003F
:101FC000914088000B0037003208E20009003A0017
:101FD0004300A8001088BF00914080004203280001
:101FE00073BB2300120E02000000000010A8B7000F
:101FF000914088008400A900A00120000C00090085
:102000004F1078004F0078003200F9003600F900D8
:102010004200F900004006004200F8003600F800D7
:102020003200F800801F7800200020000C0009001A
:10203000B01F78004300A9001488BF00B1408000A1
:1020400062BA290043BC2300120E02000000000007
:1020500014A8B700B14088008460A900A001200046
:102060000C0009004F1078004F0078003200F90092
:102070003600F9004200F90000400600851F780094
:10208000861F7800E10820000600A10000F0A600ED
:10209000030037000600A0000000EA00000037003F
:1020A0000000E0001400320000F0A7000400370038
:1020B0004200A9000080D2008100E900FAFF370049
:1020C0000180FD004200A9008180D30000F0A10042
:1020D0000080FD00814068000040B2000600A700BB
:1020E00001F0A00007003700014078000170A00057
:1020F0000140B200030037000000EB008000EB005D
:10210000000037004F037800CF027800000006007F
:102110000001780081017800014078000080FD0016
:1021200000F0A0008180D2000180FD008180FB00D2
:10213000E408200081405200060032000000E00068
:10214000040032004200A9000080D3008100E900B1
:10215000FAFF3A0003F0A600020037000000EA0090
:102160000000370000000600851F780042C8BF004D
:102170000000FB006200E10008003C0074448000A5
:10218000F48FB20002003A004268EC00020037000F
:1021900010C0B30042E8B7006500370042C8BF0076
:1021A0000000FB006300E10007003A007444800077
:1021B0006B20E10003003A008E08F8003808F900AF
:1021C0004268EC005A00370042C8BF000000FB0024
:1021D0006400E1000F003A004268EC0074448000A3
:1021E0006520E10003003C008E08F8003608F90085
:1021F00007003700744480006120E10004003A00C9
:10220000140020002442880010C0B30042E8B70048
:102210004700370042C8BF000000FB006500E10036
:102220002200350042C8BF000000FB006700E1004B
:102230001E003C00744480006020E100180035005E
:1022400042C8BF000000FB00E50250000502780014
:102250006420B80064842000840240008E88BF009F
:102260003E1002000000000004002000B41A7800B4
:10227000B41A780042C8BF000000FB006500E1000E
:1022800005003A004688BF004142800088100200E5
:10229000000000003CA8B7004268EC0002003700D4
:1022A00010C0B30042E8B7002100370042C8BF00A9
:1022B0000000FB006800E1001D003A003888BF0004
:1022C0003608B400800278004688BF004142800092
:1022D0008810020000000000850240004A88BF000C
:1022E000614280008810020000000000850240006A
:1022F0004E88BF008142800088100200000000006C
:10230000050040000080EA0080027800E18242007F
:10231000D5418800D4418000F40FB200D441880038
:10232000140020002442880010C0B30042E8B70027
:10233000CF027800000006004200F8003600F800E6
:102340003200F800801F7800200020000C000900F7
:10235000B01F78002202AE00FEFF3700301180006F
:102360008CE8B7008D68EF008C08F8008E08F90043
:10237000B4100200000000008560A900A001200048
:102380000C0009004F1078004F0078003200F9006F
:102390003600F9004200F9000040060081E0A90083
:1023A000040E20001402880081E0A8000421EF0040
:1023B000142720001408880004032800240888003B
:1023C0001021EF00047D200064088800040128002B
:1023D000840888001221EF00244E20007408880031
:1023E00004032800940888009400A8008200A90033
:1023F0008220A900030009002682BF008560A90091
:102400009560A80081E0A9004220EF0081E0A800CB
:1024100064002000240C880064002000540C880014
:1024200064002000840C880064002000B40C880044
:10243000E4002000E40C8800000006000000E0003A
:102440004220AF00040037007B3E0900000000007E
:102450000000E900FCFF3A0000000600851F78003C
:10246000047D2000040C88008621EF00CAA2AF0082
:10247000FBFF3700047D2000040C88008621EF005C
:10248000CA82AF00FBFF37008021EF008621EF00FA
:10249000B0C6B3002322AF00FEFF370024E2B7002E
:1024A0002562EF001028EF001228EF002828EF0027
:1024B000CF02780000000600851F7800C5002000CC
:1024C00004000900B51F78008004EB0083846800D5
:1024D000010378008002780003047800820378000A
:1024E0008180D2000180FD008180FB000100E000BE
:1024F0004E0032008381D2000380FD008381FB0007
:102500000300E000490032000000EB0003C050006F
:1025100003003900F047B0004400310003003700E9
:102520001048B100410039004000320085007800B9
:10253000060178000270A000F20FB200F80FB2009E
:102540000870A0009A0120008001EB000002EB005F
:102550008780500008015900020033000400310058
:1025600004003A008780400008014900010037005C
:102570000400A0000A05E900070032004200A9009B
:102580008180D2000281D2004200A9000482D200E0
:102590008381D200EEFF37000005EB000380A70027
:1025A00001003700060037004200A9008381D300F4
:1025B0000370A1000482D3000A85D2000200370014
:1025C0000000E900190032000AF0A70005003900F8
:1025D0008180D2000281D20087805000080159001A
:1025E000090039000402E80007003A008301E8000E
:1025F00005003A000000E8000C003200020037003D
:102600000000E900090032000080FD008080D30056
:1026100001F0A00009F0A60001F0A1000370A100E4
:1026200081C069000400780003003700000020002A
:1026300001002000000037004501200004000900CF
:10264000CF127800CF02780000000600851F7800C6
:10265000C500200004000900B51F780000027800C2
:102660008102780083037800020378004200A90009
:102670004220A9008180D2000180FD00F10FB2004C
:102680000100E0004B0032004200A9004220A900F6
:102690008381D2000380FD00F30FB2000300E0004D
:1026A000440032000080FB0001C041000400310002
:1026B000F007B1003F0032003E0039000200370051
:1026C0001048B0003B00310007856A004200A900B5
:1026D0004220A900F50FB2000570A0004200A90039
:1026E000F70FB2000770A0000621B800062CB80052
:1026F00083014C00890078004200AF008100E800AF
:102700004200A900043CB80083014C0081804C00C9
:10271000072CB80081004C000000E8000100E00038
:102720004220AF0001003700030037000300E00043
:102730004220AF000500370001F0A700030037007A
:102740008381D2008180D2000000E900010178007D
:102750004200A9000370A6000900370007F02F000F
:10276000878161000310B000600149000200E000B1
:1027700003003A000300E00001003A000000E80016
:102780000080FD004200A9004220A9008080D30003
:102790000AF0A70001F0A00002F0A1000280FD00F5
:1027A000814069000380FD00034178000200780049
:1027B0000300370000002000010020000000370067
:1027C0004501200004000900CF127800CF027800F4
:1027D00000000600851F7800861F7800871F78009C
:1027E0000382680004F0A600060037004200A9003A
:1027F0004220A90001F0A600260037004200A800F0
:10280000240037000102780080027800030378007A
:10281000820378008180D2000180FD008381D20094
:102820000380FD0081C051000500320004F0A600C5
:10283000180037001000200042E0B60015003700F5
:1028400084407800864178000170A1000370A100E7
:1028500081C051000500320004F0A6000D003700D1
:102860001000200042E0B6000A00370085805300C7
:102870000500320004F0A60006003700100020001A
:1028800042E0B600030037004200A9000100370013
:1028900000003700CF0378004F037800CF027800A4
:1028A00000000600851F7800D44380004306200006
:1028B0000418E10003003D0044062000D4438800D2
:1028C00006003700D4438000C3F92F000418E1004C
:1028D00002003400C4F92F00D4438800D4438000A0
:1028E0007420B8007AA8B700D44380006020E100CB
:1028F0000B003D007A88BF0000F0A60003003700FF
:1029000004002000D34380000300520080027800BE
:10291000050C88008621EF003228EF000E003700FA
:10292000D44380006020E1000B0035008021EF00DF
:102930007A88BF0000F0A6000300370004002000E2
:10294000D34380000300520080027800350C8800D9
:102950001400200094418800CF0278000000060097
:10296000851F7800861F7800871F7800881F7800F1
:102970000028EF000228EF007208F8000C08F900A8
:102980007408F8000E08F9004300A8004200F8009F
:1029900081E0A90042E0EF0081E0A8000C88BF00C0
:1029A000714080008240800093408000120E02003F
:1029B0000000000081E0A9004200F90081E0A800C9
:1029C00000A8B700114088004300A9004200F800A9
:1029D00081E0A90042E0EF0081E0A8000488BF0088
:1029E000314080000240800013408000120E02003F
:1029F0000000000081E0A9004200F90081E0A80089
:102A000004A8B700314088000088BF001140800052
:102A100001F0A1008002780001037800A09929004C
:102A200091E123000501780086017800EA13020095
:102A300000000000650039004200F80081E0A900B4
:102A400042E0EF0081E0A8002C88BF003E100200A9
:102A50000000000081E0A9004200F90081E0A80028
:102A60000240800013408000261302000000000096
:102A700080027800010378004200F80081E0A9009C
:102A800042E0EF0081E0A8002E88BF003E10020067
:102A90000000000081E0A9004200F90081E0A800E8
:102AA0002240800033408000261302000000000016
:102AB0004300A9004200F80081E0A90042E0EF00D5
:102AC00081E0A8000001780081017800050078000D
:102AD00086007800120E02000000000081E0A900CC
:102AE0004200F90081E0A80080027800010378002C
:102AF0004300A8004200F80081E0A90042E0EF0096
:102B000081E0A8000088BF001140800042408000A2
:102B100053408000120E02000000000081E0A90076
:102B20004200F90081E0A8008003780001047800E9
:102B30004200F80081E0A90042E0EF0081E0A80037
:102B40003088BF003E1002000000000081E0A900B4
:102B50004200F90081E0A8000701780088017800B0
:102B600026130200000000004300A9004200F80004
:102B700081E0A90042E0EF0081E0A80000017800B8
:102B8000810178000500780086007800120E0200AE
:102B90000000000081E0A9004200F90081E0A800E7
:102BA0004200F80081E0A90042E0EF0081E0A800C7
:102BB000881002000000000081E0A9004200F90036
:102BC00081E0A80028A8B700010037002828EF00FE
:102BD0002808F8007A08F9005214020000000000EA
:102BE0000008F8000808F9000208F8000A08F900CF
:102BF0004F047800CF0378004F037800CF027800AD
:102C000000000600851F7800047D2000640C880009
:102C10009221EF00C242AF00FBFF37008C21EF0092
:102C20009221EF00B0C6B3002322AF00FEFF3700B1
:102C300024E2B7002562EF001428EF001628EF0009
:102C40002828EF00CF02780000000600944380009F
:102C50006120E10003003A0044062000C40C880013
:102C60000B003700944380006220E10003003A002B
:102C700004072000C40C880005003700944380003E
:102C80006320E10002003A0074082000C40C8800B0
:102C900000000600851F7800C50020000300090021
:102CA000B51F780000F0A6000C0037000000EA0015
:102CB0000480A00004F0A60008003700801F780000
:102CC000D00220002322AF00FEFF370024A2B7006D
:102CD0004F0078000480A1000860ED008002EB0046
:102CE000800378008404780004F0A1000404E0006C
:102CF00006003A0009F0A700020037000500200096
:102D00000F003700050020000D003700E64252009A
:102D10000A0039000003200009F0A600000220008C
:102D20002322AF00FEFF370024A2B7008502E9008E
:102D3000FBFF3B00550020000100370084027800B3
:102D4000640020000580A7000402E80005E0A00060
:102D500009F0A70005F0A000087122001100090089
:102D60008883D800F6160200000000008103780076
:102D7000883E2000110009008883D800F616020062
:102D800000000000810378004806200011000900BF
:102D90008883D800F6160200000000008103780046
:102DA000A8002000110009008883D800F616020050
:102DB000000000000980A60005003700D0022000B6
:102DC0002322AF00FEFF370024A2B7000980A10034
:102DD0000003200000C04000500188002322AF0003
:102DE000FEFF370024A2B7002000370006032000B2
:102DF0000000E0000E003A0005E0A60016003700D3
:102E00000402E9000524E100020032004200AF00A4
:102E1000000006000000E00005003A0005E0A60002
:102E20000D00370005F0A600060220000A0037005A
:102E300005E0A1000980A600070037000005780022
:102E4000D00220002322AF00FEFF370024A2B700EB
:102E50000980A1000A007800004043002322AF004F
:102E6000FEFF370024A2B700000006002501200065
:102E700003000900CF127800CF027800000006009E
:102E8000861F7800871F7800881F7800891F7800C8
:102E90000002EB008002EB000003EB008003EB007C
:102EA0000304690011003200080220004200A9005A
:102EB0000080D2008180D2000482D2008582D200BC
:102EC0000328E10001003A0002A0E10003003900FC
:102ED0000202520083825A004200A8000683D200F8
:102EE0008783D2000804E900F0FF3A0087007800E9
:102EF00006007800CF0478004F047800CF037800F4
:102F00004F03780000000600851F7800C5002000F0
:102F100007000900B51F780001F0A6000700370080
:102F20000000EA000100320002003A008100EA00DD
:102F3000010037008180EA000480A0008002EB00DD
:102F400000037800810378000406780004F0A100F3
:102F50000404E00001003A0018003700EB42520080
:102F600016003900054252000CF0A6000B00370095
:102F70000480A60007003700D00220002322AF0003
:102F8000FEFF370024A2B7000480A1008502E900FB
:102F90000A00330000032000010037000002200077
:102FA0002322AF00FEFF370024A2B7008502E9000C
:102FB000FBFF3B000480A7000442E900E80020007A
:102FC000090020001000FA000C377C000884E9009A
:102FD000FDFF3B0084027800A40020000580A700CC
:102FE0000402E80005E0A0000CF0A70005F0A00036
:102FF0000504E000010032008542E900040F78007A
:1030000015079800060078008700780002A02C00C1
:10301000A3B92300087122000DF0A1004300A9000C
:1030200040170200000000000DF0A2000DF0A70004
:10303000070037004007980051079800000178000A
:10304000810178002E009000BE009000F3FF370051
:103050004207980053079800240798003507980006
:103060001E0278009E029000060320000000E0008F
:1030700011003A0005E0A600110037000402E90043
:10308000040F78000400E0000D0032000524E10088
:10309000020032004200AF001800370005F0A60021
:1030A000030037000580A600100037000700370036
:1030B000060220000D00370005E0A100150798006A
:1030C0009E0290000580A600080037000580A10040
:1030D0001507980000057800D00220002322AF00D9
:1030E000FEFF370024A2B7000A007800004043002A
:1030F0002322AF00FEFF370024A2B7004E0090004D
:10310000DE009000A20020008001EB006100E100E1
:1031100001003200C1FF37000080FA00A501200045
:1031200007000900CF127800CF02780000000600E7
:103130000F782200F07F220020A0B70000000000DE
:1031400040442400200588004044240040058800B5
:1031500081E0A8006004200042E7B700700520006D
:1031600042E7B70042C7A900C0F02300A4A6B700F9
:1031700040512100C0A6B70030212100C2A6B700EF
:1031800000302000CCA6B70060012000CEA6B7001A
:103190006004200042E7B7007005200042E7B70056
:1031A00042C7A8004427EF0004002800041188004B
:1031B00004402000141188002062A800041A200096
:1031C000441188001028EF001228EF001428EF00A7
:1031D0001628EF00140020009441880014002000FD
:1031E000A441880010C0B30042E8B7004428EF00B3
:1031F0006628EF006828EF002CA3EF00CE11020034
:10320000000000006628EF006828EF000428EF00A7
:103210000628EF000828EF000A28EF00840C2000A1
:10322000644188002E28EF003028EF0024428000FF
:103230006120E10009003A00B44180006120E10012
:1032400006003A004428EF00A00020001E120200F1
:10325000000000002E120200000000002442800046
:103260006120E1005A003A00B44180006220E10090
:1032700057003A000028EF000228EF002828EF004E
:10328000A00020001E12020000000000E4418000A7
:103290006120E10017003A004E88BF0081428000A3
:1032A00002002000832C24005C12020000000000B9
:1032B0004300A9004200F80081E0A90042E0EF00CD
:1032C00081E0A80000017800810178004A88BF00F1
:1032D00061428000120E02000000000081E0A9009F
:1032E0004200F90081E0A80066A8B70041438800C9
:1032F0001E0037003C08E2001C003A004E88BF0068
:103300008142800002002000832C24005C12020015
:10331000000000004300A9004200F80081E0A9007D
:1033200042E0EF0081E0A800000178008101780010
:103330004A88BF0061428000120E020000000000B7
:1033400081E0A9004200F90081E0A80000017800B6
:10335000810178000000200001F82B0026130200F4
:103360000000000066A8B700414388006608F80026
:103370007208F9006808F8007408F900B014020037
:10338000000000002888BF0000F0A60003003700FE
:1033900004002000434180000300520080027800B6
:1033A0006028E100F1FF3C007E3E090000000000C3
:1033B000C222AE00FCFF3700B0C6B3002322AF002C
:1033C000FEFF370024E2B7002562EF004428EF003B
:1033D000244280006120E10006003A00B4418000F0
:1033E0006320E10003003A00021602000000000022
:1033F0004428EF00244280006120E10030003A00C0
:10340000B44180006420E1002D003A004E88BF00E6
:103410008142800002002000832C24005C12020004
:10342000000000004300A9004200F80081E0A9006C
:1034300042E0EF0081E0A8000001780081017800FF
:103440004A88BF0061428000120E020000000000A6
:1034500081E0A9004200F90081E0A80066A8B70059
:10346000414388001428EF001628EF009460A8005C
:103470008C21EF00047D2000940C88001488BF008C
:10348000B14080003243800043438000EA130200D1
:1034900000000000F6FF3100F5FF32008C21EF0044
:1034A0009221EF009460A900B0C6B3002322AF00C0
:1034B000FEFF370024E2B7002562EF004428EF004A
:1034C000244280006120E10052003A00B4418000B3
:1034D0006520E1004F003A004200F80081E0A900B9
:1034E00042E0EF0081E0A8004688BF004142800032
:1034F000881002000000000081E0A9004200F900ED
:1035000081E0A80040A8B7004008F8007208F90060
:1035100026160200000000004428EF004200F800D8
:1035200081E0A90042E0EF0081E0A8004688BF00EA
:1035300041428000881002000000000081E0A900E4
:103540004200F90081E0A8008002780005007800C0
:10355000040020004A160200000000002322AF00F1
:10356000FEFF370004022000241188004A88BF00B3
:103570006142800004002000841702000000000067
:103580002322AF00FEFF3700040220002411880030
:103590004E88BF0081428000040020008417020092
:1035A000000000002322AF00FEFF370004022000CD
:1035B000241188002322AF00FEFF3700A400200062
:1035C0002411880001002000010078000160EF0054
:1035D000FC0D0200000000008100E8002322AF0083
:1035E000FEFF370024A2B700400020000008E600DC
:1035F000F5FF37003688BF00040020004A1602009D
:10360000000000002322AF00FEFF3700A4002000CE
:1036100024118800A00020001E12020000000000FB
:0836200002FF37000040FE002C
:020000040001F9
:0807F800F7F900FF7F3F00FF4D
:00000001FF
;PIC24FJ48GA002
;CRC=00BF  CREATED="17-Nov-18 00:34"
